:020000040800F2
:200000000020002045090008310900083309000800000000000000000000000000000000C4
:200020000000000000000000000000003509000800000000000000003709000839090008E8
:20004000950900089509000895090008950900089509000895090008950900089509000870
:200060000000000095090008950900089509000895090008950900089509000895090008F6
:200080009509000895090008950900089509000800000000950900089509000895090008D6
:2000A0006D0400089509000895090008950900089509000895090008000000000000000089
:2000C00010B5064C2378002B07D1054B002B02D0044800E000BF0123237010BD440000204B
:2000E0000000000050130008044B10B5002B03D00349044800E000BF10BDC0460000000079
:200100004800002050130008002243088B4274D303098B425FD3030A8B4244D3030B8B42B4
:2001200028D3030C8B420DD3FF22090212BA030C8B4202D31212090265D0030B8B4219D334
:2001400000E0090AC30B8B4201D3CB03C01A5241830B8B4201D38B03C01A5241430B8B42BD
:2001600001D34B03C01A5241030B8B4201D30B03C01A5241C30A8B4201D3CB02C01A52411E
:20018000830A8B4201D38B02C01A5241430A8B4201D34B02C01A5241030A8B4201D30B02D4
:2001A000C01A5241CDD2C3098B4201D3CB01C01A524183098B4201D38B01C01A524143091B
:2001C0008B4201D34B01C01A524103098B4201D30B01C01A5241C3088B4201D3CB00C01A8E
:2001E000524183088B4201D38B00C01A524143088B4201D34B00C01A5241411A00D2014630
:20020000524110467047FFE701B5002000F006F802BDC0460029F7D076E770477047C0460E
:2002200010B50B480B4B036000230371013343710122524202612132426160328261036284
:2002400000F0BAFC002800D110BD00F0B1FAFBE7600000200030024082B00268074B9A42F9
:2002600001D002B07047064B9A6B802149010A439A639B6B0B400193019BF2E700300240ED
:20028000001002400268054B9A4200D07047044A936B04490B409363F8E7C04600300240BE
:2002A00000100240FFEFFFFF82B0054A516B012319435163526B13400193019B02B07047E6
:2002C00000100240F0B5C64600B590B01C22002109A801F011F81822002103A801F00CF821
:2002E000304D6B6B012423436B636B6B23400293029B80231B01039302239846049305945F
:200300000694079406270897A026F60503A9300000F0CAFE80235B01039343460493059439
:2003200006940794089703A9300000F0BDFEEB6B8022D2031343EB63EB6B13400193019B18
:20034000194BC62189005A58FF2082435A50802252041A6000230993144A0A920B930C9321
:20036000A8220D920E930F93114C09A9200000F021FF626880239B0413436360E3680D4ACB
:200380001340E360E3680C4A1340E36023680B4A1340236023680A4A1340236010B080BC29
:2003A000B846F0BD0010024000E100E06621C1000058004001F8FFFFFF7FFFFFFFFFF7FF38
:2003C000FFFFFDFFF8231B069C466044C00A7047F0B587B01422002101A800F08DFF164B27
:2003E0005A6B012632435A635B6B33400093009B80252D01A024E40500222900200000F09D
:200400004DFE80277F0100223900200000F046FE0195002502950396049501A9200000F07D
:2004200083FD019702950396049501A9200000F07BFD07B0F0BDC0460010024010B5074BD6
:200440001C680748074A084900F012FCC043844201D0002010BD0120FCE7C046FC6700082D
:2004600060000020FC4F00000018000810B5344B9B691A073ED5324AD16908200143D161C1
:200480009269D2032ED52E490A68063802430A602C4A032111702A490A68202002430A60C4
:2004A0009B0648D5264AD36920210B43D361254B1B78DAB2032B30D0042A3FD1224B002285
:2004C0001A80204B01321A701D4B1A688A431A605968802212020A435A601A6808210A43B3
:2004E0001A602BE01648026804210A430260154A1170D0E79A07D3D45A07D1D5104A516AE0
:200500001148028894B2013292B20280CAB20F490A550C4A04211170C2E7094BD969982291
:2005200052000A43DA611A6808210A431A60054B00221A7002E0064B01221A8010BDC046B0
:20054000005800408E00002098080020900000208C00002070B51A4C200000F001FE6368D4
:20056000184A1340636023680122934323602368073293432360144D00242C60134B1968EF
:20058000053A0A401A60124A01214942802011500130FF3011500F4A146654669466D466CC
:2005A0009969802252000A439A6100F03FFE0A4800F044FB00F0F0F92C606C60AC6070BDE5
:2005C00000580040FFFFFFFD10E000E00000014000E100E0001802406000002010B5FFF722
:2005E0002DFF002807D00D4B1B680D4A134080229205934200D010BDFFF7ACFF074A094B5A
:200600009A60094B1968094B19601968084B1960126882F308881B689847ECE7001800081D
:200620000000FE2F00ED00E0041800088800002084000020F0B5C64600B586B000230593F9
:200640003B4A53781B06917809040B43D17809020B4316791E4380231B019846B0445179D8
:20066000090293795B189BB2002B53D0314B1B695B0307D596239B00F3182F4A1A602D4B51
:200680002E4A1A6100F05EFB0028FBD13000FFF799FE022301930390013B0493322000F00C
:2006A00069FB05A901A800F0FBFB0028F6D1082729E01F4BDD5D7A1C9A5C12021543BA1C00
:2006C0009A5C12041543FA1C9A5C120615433A1D9C5C7A1D9A5C12021443BA1D9A5C120410
:2006E0001443FA1D9B5C1B061C43322000F042FB2A0023003100012000F072FB0028F4D1AD
:2007000008360837BFB24645D3D300F09BFB322000F030FB00230A4A934204D8044A002130
:20072000D1540133F7E706B080BCB846F0BDC046900000200020024023300000FBC30000BC
:200740000708000010B511E0FFF774FF144B802252041A60134B1A6808210A431A601A6848
:20076000012002431A601A680A431A600E4B1B78012BFBD10A4A7F3380214904D150BFF3A5
:200780004F8FBFF36F8F084B00221A70074B1B78DAB2062BD8D0772AD8D1FFF71FFFD5E768
:2007A00000E100E0005800408E0000209000002072B6FEE710B52F4A136807218B43053988
:2007C0000B4313602B4B1A6807231340022BF9D1294A1168FE330B43136001E0012B09D028
:2007E000254B19688022D2000B0013401142F5D00123F3E7204AD068204908402049014320
:20080000D16010688021490401431160D068802149050143D16001E0012809D0164A116834
:2008200080229204080010401142F5D01800F3E7114A936813490B409360936807218B433D
:2008400005390B4393600C4B9A6838231340102BF9D1094A93680C490B4093600B4800F0E9
:2008600045FD032000F0ACF8002800D110BDFFF79FFFC04600200240001002408C80FF1F41
:2008800002080020FFF0FFFFFF8FFFFF0090D00310B500F0C1F8FFF78DFFFFF705FDFFF774
:2008A000BFFCFFF795FD9620400000F00BFDA023DB051B691B0504D4A023DB051B69DB04E2
:2008C0000ED5FFF78BFEFFF7FDFC0C4B1A6801210A431A601A6807310A431A60FFF732FF5D
:2008E000FFF7F0FC054B196801220A431A60196808220A431A60FFF725FFC0460058004031
:2009000082B00A4B196C012211431964196C0A400092009ADA6B802149050A43DA63DB6BD8
:200920000B400193019B02B07047C04600100240FEE7FEE77047704710B500F081F810BD48
:20094000704700000D488546FFF7FAFF0C480D490D4A002302E0D458C4500433C4188C42AA
:20096000F9D30A4A0A4C002301E013600432A242FBD300F0C9FCFFF78BFFFEE70020002048
:2009800000000020440000208013000844000020BC080020FEE7704710B5084B012149428F
:2009A000D9620022DA6219631A6399629A6259625A62FFF7F0FF002010BDC046001002400D
:2009C00010B50400114B1978002901D1012010BDFA208000FFF798FB01000D4B1868FFF786
:2009E00093FB00F08FF800280DD1032C01D90120EDE7013000222100404200F07FF8054B41
:200A00001C600020E3E70120E1E7C04604000020000000200800002010B5084A11688023E2
:200A20005B000B4313600320FFF7CAFF041E02D00124200010BDFFF763FFFAE70020024017
:200A4000034B1B78034A11685B1813607047C046040000209C080020014B18687047C046DB
:200A60009C08002070B5002811DB8308134DC0339B005C5903221040C000FC32160086400C
:200A8000B44389010A40824022435A5170BD0F230340083B9B0806339B00094A9446634489
:200AA0005C6803221040C000FC3215008540AC4389010A40824022435A60E7E700E100E002
:200AC00000ED00E0013880235B0498420FD2094A50600948036A1B021B0AC02109060B4312
:200AE00003620023936007331360002070470120FCE7C04610E000E000ED00E010B5FFF795
:200B0000B1FF10BD10B5FFF7DDFF10BD70B500250EE0AC000B5D1B060C19667836043343D4
:200B2000A67836023343E67804683343236001359308AB42EDD803231C001440134205D0E3
:200B4000012C06D0022C09D0032C10D00368186870BDAB000268CB5C1370F3E7AB00CA5CFA
:200B6000CB185B781202134302681380ECE7AD004A5D49194B78120213430268138003683A
:200B80008A781A70E2E770B5002508E0AC000B5B1B040C1966880468334323600135530894
:200BA000AB42F3D8D20703D50368AD006A5A1A800368186870BD000010B5041E39D0437F8C
:200BC000002B25D0022363772379002B24D12368194A5A612268936818218B439360637936
:200BE000002B22D12368012252421A612268936860218B4361690B43936022689368802115
:200C00008B43A1690B43936001236377002010BD0377FFF721FBD5E7E268A168200000F025
:200C20004FF80028DBD00120F1E7236822691A61DCE70120EBE7C046B71DC10470B5041E74
:200C400014D0437FD8B2022B0FD0022363772268936801210B439360236800255D602000E4
:200C6000FFF710FB65772577002070BD0120FCE770B50400022343770068836801252B43BB
:200C80008360236A022B17D0032B0FD0012B0FD000200123637770BD20689D006D5805601E
:200CA00001339342F8D323681868F2E70023F8E72000FFF72BFFECE72000FFF764FFE8E71F
:200CC00030B5CB072AD51F231C00013B002C06D01F241C400D00E5402C00E407F4D5102AD7
:200CE00018D009D8002A0BD0082A03D10F2B07D9012014E0012012E0182A11D1062B11D8A0
:200D00000368596101688B681820834313438B60002004E0072BF3D9012000E0012030BD02
:200D20000120FCE70120FAE730B5054C61690125294361610260BFF36F8F436030BDC046B1
:200D400000200240084B5B69002B01DB00207047054B064A9A60064A9A605B69002B01DB8D
:200D60000020F4E70120F2E70020024023016745AB89EFCD70B50400FFF76EFE0500144B6D
:200D80001B69DB0308D5631CF9D0FFF765FE401BA042F4D303201AE00D490A690D4B16001B
:200DA0001E400D4808611A420CD1094B1B695B030CD5631CF9D0FFF74FFE401BA042F4D338
:200DC000032004E0054B5E60012000E0002070BD00200240FAC30000FBC30000A00800200B
:200DE000F8B507000C0015001E00144B1B78012B22D0124B01221A7000225A60FA20800070
:200E0000FFF7B8FF00280DD1012F0FD02900200000F0AAFAFA208000FFF7ACFF084A5369EA
:200E2000BB435361054B00221A70F8BD2A0033002000FFF779FFEDE70220F6E7A0080020C9
:200E40000020024010B5FA208000FFF793FF064B5969802212060A435A615B69002B01DBA9
:200E6000012010BD0020FCE700200240034A536903438020400218435061704700200240C9
:200E8000044A536904480340C9001943034B0B43536170470020024007E0FFFF0200010043
:200EA00070B504000E001E4B1B78012B36D01C4B01221A7000225A60FA208000FFF75AFFF4
:200EC000002827D1042363602368042B14D001235B423360A568A368E2689B18AB4214D927
:200EE00060682900FFF7CCFFFA208000FFF742FF002809D10135EEE70430FFF7B7FFFA2068
:200F00008000FFF737FF05E03560064A536902218B435361024B00221A7070BD0220FCE7CF
:200F2000A008002000200240F0B5002359E086685F000324BC40A643CC68BC4034438460A2
:200F4000446894434E683609012232409A402243426056E0DE080836B600375805321A4073
:200F600092000F249440A7430C69944022003A43325059E0032600E00026A64034003C4383
:200F8000424E1832920094513768EA433E00AE434C68E40201D53E002E433C4C2660676809
:200FA0003E0016404C68A40201D53E002E43374C66608426A7593E0016404C68A40301D506
:200FC0003E002E43314C8427E6518026A65932404C68E40301D52A0032432C4D80242A5144
:200FE00001330C682200DA404ED001229A40250015401442F4D04E6803243440013C012CA3
:2010000095D94C6803222240032A08D0C4685E000322B24094438A68B2402243C2604C688B
:2010200003222240022A95D004685E0003221700B740BC434F683A40B240224302604C68FE
:20104000C02292021442CBD09A0814001834A4000E4EA75903241C40E4000F26A640B743AB
:20106000A026F605B04287D0094EB04208D0094EB04207D0084EB04200D17BE705267CE71C
:2010800001267AE7022678E7F0BDC046001802400004005000080050000C0050002A01D031
:2010A000816170478162FCE7F0B5002216E00B699C46C4682B006B435E00F618F743B4431C
:2010C00066465E433443C4604C68022C25D04D6804683C406B432343036001320C68230073
:2010E000D3403AD00123934025001D401C42F4D04B68013B012BDAD88F6883682C006C43AE
:2011000066003619B3437C4323438360CC684368AB436C4323434360C9E7FF2D0DD84C6921
:20112000A446066A1C006C436C4325012D1BAE4365466C4334430462C9E74C69A446466A46
:201140002D0A2C006C436C436C4325012D1BAE4365466C4334434462B9E70020F0BD0000DC
:201160000F4B984204D00F4B98420DD0012070470D4BD96A802292030A43DA62DA6A0B498B
:201180000A40DA620020F2E7074BD96A8022D2030A43DA62DA6A06490A40DA620020E6E735
:2011A000005400400058004000100240FFFFDFFFFFFFBFFF70B503680125AB4303608A6820
:2011C000CC680368164E334024022243134303604B68036103682B4303608368114A134069
:2011E00083600A698C698368DB0ADB022243134383600B69002B04D0826880231B021343E6
:2012000083600B680268084C2240134303604B69426804490A4013434360002070BDC0465E
:20122000FFE0FFFFFF7FFFFFFFFFCFFF234A116880235B000B43136001E0012B09D01F4B94
:2012400019688022D2000B0013401142F5D00123F3E71A4A50681A4908408021C9010143AF
:201260005160002191600131FF31116001E0002809D0124A11688022920208001040114240
:20128000F5D01800F3E70D4A80214900116001E0002809D0094A11688022920408001040A7
:2012A0001142F5D01800F3E7044B80225201DA6000229A61013A1A627047C04600100240C3
:2012C000FF80FFFF82B0084B1B680193019B431C00D00130002805D0034B1B68DB03F9D57F
:2012E0000138F7E702B0704710E000E0014B18607047C0460000002003008218934200D1BA
:20130000704719700133F9E770B500260C4C0D4D641BA410A64209D1002600F019F80A4C0A
:201320000A4D641BA410A64205D170BDB300EB5898470136EEE7B300EB5898470136F2E772
:2013400078130008781300087C13000878130008F8B5C046F8BC08BC9E467047F8B5C046C4
:20136000F8BC08BC9E46704701B40248844601BC604700BF0D000020E9000008C100000887
:201380000024F400010000000400000010B50C4A54698023DB0223435361EFF3108472B620
:2013A000002303E004C904C00133DBB23F2BF9D9034B1B69DB03FBD484F3108810BDC04638
:2013C00000200240FFFFFFFFFFFFFFFFFFFFFFFFFFFFFFFFFFFFFFFFFFFFFFFFFFFFFFFFC7
:2013E000FFFFFFFFFFFFFFFFFFFFFFFFFFFFFFFFFFFFFFFFFFFFFFFFFFFFFFFFFFFFFFFF0D
:20140000FFFFFFFFFFFFFFFFFFFFFFFFFFFFFFFFFFFFFFFFFFFFFFFFFFFFFFFFFFFFFFFFEC
:20142000FFFFFFFFFFFFFFFFFFFFFFFFFFFFFFFFFFFFFFFFFFFFFFFFFFFFFFFFFFFFFFFFCC
:20144000FFFFFFFFFFFFFFFFFFFFFFFFFFFFFFFFFFFFFFFFFFFFFFFFFFFFFFFFFFFFFFFFAC
:20146000FFFFFFFFFFFFFFFFFFFFFFFFFFFFFFFFFFFFFFFFFFFFFFFFFFFFFFFFFFFFFFFF8C
:20148000FFFFFFFFFFFFFFFFFFFFFFFFFFFFFFFFFFFFFFFFFFFFFFFFFFFFFFFFFFFFFFFF6C
:2014A000FFFFFFFFFFFFFFFFFFFFFFFFFFFFFFFFFFFFFFFFFFFFFFFFFFFFFFFFFFFFFFFF4C
:2014C000FFFFFFFFFFFFFFFFFFFFFFFFFFFFFFFFFFFFFFFFFFFFFFFFFFFFFFFFFFFFFFFF2C
:2014E000FFFFFFFFFFFFFFFFFFFFFFFFFFFFFFFFFFFFFFFFFFFFFFFFFFFFFFFFFFFFFFFF0C
:20150000FFFFFFFFFFFFFFFFFFFFFFFFFFFFFFFFFFFFFFFFFFFFFFFFFFFFFFFFFFFFFFFFEB
:20152000FFFFFFFFFFFFFFFFFFFFFFFFFFFFFFFFFFFFFFFFFFFFFFFFFFFFFFFFFFFFFFFFCB
:20154000FFFFFFFFFFFFFFFFFFFFFFFFFFFFFFFFFFFFFFFFFFFFFFFFFFFFFFFFFFFFFFFFAB
:20156000FFFFFFFFFFFFFFFFFFFFFFFFFFFFFFFFFFFFFFFFFFFFFFFFFFFFFFFFFFFFFFFF8B
:20158000FFFFFFFFFFFFFFFFFFFFFFFFFFFFFFFFFFFFFFFFFFFFFFFFFFFFFFFFFFFFFFFF6B
:2015A000FFFFFFFFFFFFFFFFFFFFFFFFFFFFFFFFFFFFFFFFFFFFFFFFFFFFFFFFFFFFFFFF4B
:2015C000FFFFFFFFFFFFFFFFFFFFFFFFFFFFFFFFFFFFFFFFFFFFFFFFFFFFFFFFFFFFFFFF2B
:2015E000FFFFFFFFFFFFFFFFFFFFFFFFFFFFFFFFFFFFFFFFFFFFFFFFFFFFFFFFFFFFFFFF0B
:20160000FFFFFFFFFFFFFFFFFFFFFFFFFFFFFFFFFFFFFFFFFFFFFFFFFFFFFFFFFFFFFFFFEA
:20162000FFFFFFFFFFFFFFFFFFFFFFFFFFFFFFFFFFFFFFFFFFFFFFFFFFFFFFFFFFFFFFFFCA
:20164000FFFFFFFFFFFFFFFFFFFFFFFFFFFFFFFFFFFFFFFFFFFFFFFFFFFFFFFFFFFFFFFFAA
:20166000FFFFFFFFFFFFFFFFFFFFFFFFFFFFFFFFFFFFFFFFFFFFFFFFFFFFFFFFFFFFFFFF8A
:20168000FFFFFFFFFFFFFFFFFFFFFFFFFFFFFFFFFFFFFFFFFFFFFFFFFFFFFFFFFFFFFFFF6A
:2016A000FFFFFFFFFFFFFFFFFFFFFFFFFFFFFFFFFFFFFFFFFFFFFFFFFFFFFFFFFFFFFFFF4A
:2016C000FFFFFFFFFFFFFFFFFFFFFFFFFFFFFFFFFFFFFFFFFFFFFFFFFFFFFFFFFFFFFFFF2A
:2016E000FFFFFFFFFFFFFFFFFFFFFFFFFFFFFFFFFFFFFFFFFFFFFFFFFFFFFFFFFFFFFFFF0A
:20170000FFFFFFFFFFFFFFFFFFFFFFFFFFFFFFFFFFFFFFFFFFFFFFFFFFFFFFFFFFFFFFFFE9
:20172000FFFFFFFFFFFFFFFFFFFFFFFFFFFFFFFFFFFFFFFFFFFFFFFFFFFFFFFFFFFFFFFFC9
:20174000FFFFFFFFFFFFFFFFFFFFFFFFFFFFFFFFFFFFFFFFFFFFFFFFFFFFFFFFFFFFFFFFA9
:20176000FFFFFFFFFFFFFFFFFFFFFFFFFFFFFFFFFFFFFFFFFFFFFFFFFFFFFFFFFFFFFFFF89
:20178000FFFFFFFFFFFFFFFFFFFFFFFFFFFFFFFFFFFFFFFFFFFFFFFFFFFFFFFFFFFFFFFF69
:2017A000FFFFFFFFFFFFFFFFFFFFFFFFFFFFFFFFFFFFFFFFFFFFFFFFFFFFFFFFFFFFFFFF49
:2017C000FFFFFFFFFFFFFFFFFFFFFFFFFFFFFFFFFFFFFFFFFFFFFFFFFFFFFFFFFFFFFFFF29
:2017E000FFFFFFFFFFFFFFFFFFFFFFFFFFFFFFFFFFFFFFFFFFFFFFFFFFFFFFFFFFFFFF0107
:2018000000200020D5320008A12D0008A32D000800000000000000000000000000000000CB
:20182000000000000000000000000000A52D00080000000000000000A72D0008A92D000814
:20184000253300082533000825330008253300082533000825330008253300082533000888
:201860000000000025330008253300082533000825330008253300082533000825330008C8
:201880002533000825330008253300082533000800000000253300082533000825330008A8
:2018A0003125000825330008253300082533000825330008253300080000000000000000EA
:2018C00010B5064C2378002B07D1054B002B02D0044800E000BF0123237010BD0C0100206A
:2018E00000000000144A0008044B10B5002B03D00349044800E000BF10BDC0460000000066
:2019000010010020144A0008002243088B4274D303098B425FD3030A8B4244D3030B8B42D8
:2019200028D3030C8B420DD3FF22090212BA030C8B4202D31212090265D0030B8B4219D31C
:2019400000E0090AC30B8B4201D3CB03C01A5241830B8B4201D38B03C01A5241430B8B42A5
:2019600001D34B03C01A5241030B8B4201D30B03C01A5241C30A8B4201D3CB02C01A524106
:20198000830A8B4201D38B02C01A5241430A8B4201D34B02C01A5241030A8B4201D30B02BC
:2019A000C01A5241CDD2C3098B4201D3CB01C01A524183098B4201D38B01C01A5241430903
:2019C0008B4201D34B01C01A524103098B4201D30B01C01A5241C3088B4201D3CB00C01A76
:2019E000524183088B4201D38B00C01A524143088B4201D34B00C01A5241411A00D2014618
:201A0000524110467047FFE701B5002000F0F0F802BDC0460029F7D076E7704703460B4332
:201A20007FD4002243088B4274D303098B425FD3030A8B4244D3030B8B4228D3030C8B4224
:201A40000DD3FF22090212BA030C8B4202D31212090265D0030B8B4219D300E0090AC30B11
:201A60008B4201D3CB03C01A5241830B8B4201D38B03C01A5241430B8B4201D34B03C01A49
:201A80005241030B8B4201D30B03C01A5241C30A8B4201D3CB02C01A5241830A8B4201D3B3
:201AA0008B02C01A5241430A8B4201D34B02C01A5241030A8B4201D30B02C01A5241CDD2BD
:201AC000C3098B4201D3CB01C01A524183098B4201D38B01C01A524143098B4201D34B0101
:201AE000C01A524103098B4201D30B01C01A5241C3088B4201D3CB00C01A524183088B4257
:201B000001D38B00C01A524143088B4201D34B00C01A5241411A00D2014652411046704741
:201B20005DE0CA0F00D04942031000D34042534000229C4603098B422DD3030A8B4212D39D
:201B4000FC22890112BA030A8B420CD3890192118B4208D3890192118B4204D389013AD01E
:201B6000921100E08909C3098B4201D3CB01C01A524183098B4201D38B01C01A5241430938
:201B80008B4201D34B01C01A524103098B4201D30B01C01A5241C3088B4201D3CB00C01AB4
:201BA000524183088B4201D38B00C01A5241D9D243088B4201D34B00C01A5241411A00D2F2
:201BC0000146634652415B10104601D34042002B00D54942704763465B1000D3404201B50A
:201BE000002000F005F802BD0029F8D016E770477047C0464138C3B2062B05D898000C4BCC
:201C00001B589F460B4B596370478023DB055963FAE7094B5963F7E7074B9963F4E7064B1B
:201C2000D963F1E7044B1964EEE7044B5963EBE7404A00080020004000040040002C01406F
:201C400010B5294B1B78DBB2284AD45C402319002140234202D0264B1978C9B24120FFF7A1
:201C6000C9FF202319002140234202D0204B1978C9B24220FFF7BEFF10231900214023420A
:201C800002D01B4B1978C9B24320FFF7B3FF082319002140234202D0154B1978C9B2442049
:201CA000FFF7A8FF042319002140234202D0104B1978C9B24520FFF79DFF022319002140B2
:201CC000234202D00A4B1978C9B24620FFF792FF012319002140234202D0054B1978C9B24E
:201CE0004720FFF787FF10BD270600206C4A00082506002010B500214120FFF77BFF002106
:201D00004220FFF777FF00214320FFF773FF00214420FFF76FFF00214520FFF76BFF002119
:201D20004620FFF767FF00214720FFF763FF10BDA023DB051B691B071AD40822A023DB0530
:201D40001B695B0716D404231A43A023DB051B699B0711D402231A43A023DB0519690120B9
:201D600003000B40084209D158425841104370470022E3E70023E7E70023ECE70123F3E7E3
:201D8000074B19780123092B06D8054AD25C8A4204D10133DBB2F6E7014BD9727047C0461A
:201DA0003001002010B50A4B00229A72FFF7C0FF002303E0064AD0540133DBB2092BF9D994
:201DC000034BD87201F012FC024B186010BDC046300100202C01002070B501F007FC040019
:201DE000094B1B68C31A092B00D870BDFFF7A0FF064DAB7AE854581C0A21FFF7F5FEA9720A
:201E0000014B1C60F1E7C0462C0100203001002010B5FFF7B5FF084B1B78002B06D1074BD5
:201E2000DB7A074AD25C074B1A7010BD034BDA7A044B1A70F9E7C046240600203001002029
:201E40005C4A000827060020F8B5CE46474680B52B490B782B4802789B1A5A1E9341DBB292
:201E60009946294E3278294D2B78D21A531E9A41D3B29C46264F3B78264A14781B1B5C1ED6
:201E8000A341DBB20078087029783170117839702978C8B2002919D0FE2820D062464C46F0
:201EA0001443234321D11C4B1B78002B13D001F09DFB1A4B1B68C01A194B1B6898420AD97C
:201EC000FFF718FF144B00221A7004E0FFF712FF114B00221A70C0BCB946B046F8BDFFF7DB
:201EE000AFFE0D4B00221A70F5E7FFF7A9FE01F07DFB0A4B1860084B01221A70EBE7C046AA
:201F0000C200002027060020C100002026060020C0000020250600202801002018060020B3
:201F200010060020002309E0104A20219161C046C046C046C04691620133DBB2172B13D8D9
:201F40001721C91A01228A401042EDD0074A20219161C046C046C046C046C046C046C046BC
:201F6000C046C0469162E7E77047C0460004005000B587B0164A516B022319435163526B89
:201F800013400093009B1422002101A802F00CFD202301931F3B0293049301A90D4801F078
:201FA00091FC0D4B1B78012B05D00B4B1B78002B07D007B000BD01221021064801F043FD76
:201FC000F7E700221021034801F03DFDF1E7C04600100240000400502306002010B572B6A0
:201FE0000A4B1868FFF79EFF00230AE0C046C046C046C046C046C046C046C046C046013302
:20200000DBB2FF2BF2D162B610BDC0464801002010B572B60A4B1868FFF784FF00230AE0AA
:20202000C046C046C046C046C046C046C046C046C0460133DBB2FF2BF2D162B610BDC046D1
:202040004401002010B5FFF793FFFFF7E1FF10BDF8B5104F3B78104E307858436421FFF750
:2020600053FC05007B78307858436421FFF74CFC0400BB78307858436421FFF745FCFF23BB
:202080001C4024041D402D022C4303402343034A1360F8BD20060020C7000020480100200D
:2020A00010B5384B1A78384B1B78D21A531E9A41364B1B78364909785B1A591E8B411343D6
:2020C00005D1344B1B78002B11D0012400E001242D4B19782B4A11702D4A11782B4A1170ED
:2020E0001B78DAB2002B04D0012A16D010BD0024EEE71021284801F09FFC002807D1002C92
:20210000F4D0FFF7A5FF234B00221A70EEE700221021214801F097FCF1E710211E4801F0D2
:202120008BFC01280DD11D4B1B78002B16D1002CDCD0FFF78DFFFFF751FF164B00221A7057
:20214000D4E701221021144801F07DFC134B01221A7001F04BFA124B1860C7E701F046FAB5
:202160000F4B1B68C01A3128C0D9FFF771FFFFF735FF084A00231370084A1370084A136094
:20218000B4E7C046C400002023060020C3000020C7000020140600200004005040010020B8
:2021A0003C01002070B588B01422002103A802F0FBFB164B5A6B012422435A635A6B2240E7
:2021C0000192019A5A6B02252A435A635B6B2B400293029B0E4E01221021300001F033FC58
:2021E0000F230393002304930594A02003A9C00501F068FB1023039304940594069503A9FE
:20220000300001F05FFB08B070BDC0460010024000040050F0B5C64600B590B01C220021AD
:2022200009A802F0C1FB1822002103A802F0BCFB304D6B6B012633436B636B6B33400293F4
:20224000029B80231B0103930224049406960796062398460893A027FF0503A9380002F052
:202260009BF880235B010393049400240594069607964346089303A9380002F08DF8EB6BD3
:202280008022D2031343EB63EB6B13400193019B194BC62189005A58FF2082435A50802294
:2022A00052041A600994154B0A930B940C9466230D930E940F94124C09A9200002F0F2F8FB
:2022C000626880239B0413436360E3680D4A1340E360E3680C4A1340E36023680B4A134037
:2022E000236023680A4A1340236010B080BCB846F0BDC0460010024000E100E01706300099
:202300000058004001F8FFFFFF7FFFFFFFFFF7FFFFFFFDFFF0B5C64600B590B01C220021BF
:2023200009A802F041FB1822002103A802F03CFB334D6B6B012633436B636B6B33400293F0
:20234000029B80231B0103930224049406960796062398460893A027FF0503A9380002F051
:202360001BF880235B010393049400240594069607964346089303A9380002F00DF8EB6BD2
:202380008022D2031343EB63EB6B13400193019B1C4BC62189005A58FF2082435A50802290
:2023A00052041A600994184B0A930B940C94174D2B785B000D930E940F94154C09A92000F7
:2023C00002F070F8626880239B0413436360E368104A1340E360E3680F4A1340E36023687E
:2023E0000E4A1340236023680D4A134023602878C0B200F017F810B080BCB846F0BDC04639
:202400000010024000E100E06621C100C50000200058004001F8FFFFFF7FFFFFFFFFF7FF7D
:20242000FFFFFDFF4000C0B2014B18707047C0465C0100200A4B1A6801210A431A601A68A0
:2024400007310A431A601A6808310A431A601A6870310A431A601A6860390A431A60704778
:2024600000580040084B1A6808218A431A601A6808318A431A601A6870318A431A601A6891
:2024800060398A431A6070470058004010B50C0096239B00994202D8002902D10EE096248F
:2024A000A40000280AD0064B22000100180002F0A7FA044B00221A80034B1C8010BDC0468F
:2024C000600100205A01002058010020054A138899B201339BB21380034B5B6ADBB2034A51
:2024E000535470475E01002000580040B80300200B4A13889BB20B49CB5CDBB20A498B6207
:20250000138801339BB21380128892B2074B1B889BB29A4202D3024B00221A807047C04675
:202520005A01002060010020005800405801002070B5534B1A6801321A601A68514B9A42A2
:2025400014D8514B9B691B0728D54F4B9B695B0C5B00FF2213404D4A1278D2B29A4230D07B
:20256000494AD36908210B43D36170BD464C200001F06EFF6368464A134063602368012285
:20258000934323602368073293432360FFF7C2FEFFF750FF3A4B00221A60D2E73A4B9B6967
:2025A000DB0645D4384B9B699B0747D4364B9B695B0746D4344B9B699B0645D4324B9B691E
:2025C000D3E7344B1B889BB2002B10D12E4B9B69DB0319D42C4BDA6908210A43DA611A6891
:2025E00004390A431A602C4B01221A60BDE7FFF739FF284C218889B2284800F021F90023FC
:202600002380FFF717FFE1E71F4B9B69DB0309D51D4BDA6908210A43DA611A6806390A43AF
:202620001A60A2E7184AD36908210B43D3619CE7154AD36910210B43D36196E7FFF758FFB3
:2026400093E7FFF743FF90E70F4BDA6920210A43DA619B69DB0702D40B4B01229A61FFF7C5
:2026600001FF0C4D298889B20C4800F0E9F800242C80FFF7DFFE084B1C60094B1C6074E753
:202680005401002010270000005800405C010020FFFFFFFD5E01002050010020B8030020B4
:2026A0004C0100200B4B0C4A1A600C4A1A6002225A600B4A9A6002E00023012B05D0054B34
:2026C000DB685B07F8D10123F7E7024B054A1A607047C04600300040CCCC00005555000005
:2026E000FF0F0000AAAA0000BFF34F8F034B044ADA60BFF34F8FC046FDE7C04600ED00E0C5
:202700000400FA0582B080229205002307E099000C4884466144096802C20133DBB22F2B95
:20272000F5D9094A116C012319431164126C13400193019B054A136803210B43136002B0A4
:202740007047C04600180008001002400000014070B500F04FFEFF282FD0324B1870002458
:2027600000F00EFEFF282DD02F4B187000F048FEFF282CD02D4B187000F086FEFF282BD048
:202780002B4B1870002500F085FEFF2829D0294B1870002C2AD1002D34D100F0B1FEFF2868
:2027A00039D0254B18701F4B1B785A01D21A92009B18DB00214A136070BD1A4BFE221A709A
:2027C0000124CDE7184B32221A700124CEE7174B01221A700124CFE7154B01221A700125E8
:2027E000D1E7144B32221A700125D2E70D4B1878C0B20D4B1978C9B20C4B1A78D2B200F0EA
:2028000005FEC8E70A4B1878C0B20A4B1978C9B200F046FEC1E7084B48221A70B73800F04C
:2028200075FEC0E726060020250600202406002023060020C7000020C50000201006002052
:20284000F0B591B005000C0010220021684602F0ABF8012C00D8B7E02B78102B18D0202B3E
:202860002AD0302B36D0FF2B41D019004039C9B2012950D919005039C9B2022900D99FE0C2
:20288000042C00D99CE0E7B2013FFFB200237EE0022CE4D16A78B14B1B78DBB29A4200D11A
:2028A00092E0AE4B1A701B785A01D21A92009B18DB00AB4A136087E0022CD2D16B78642B17
:2028C00000D981E0A74A1278D2B293427CD0A54A137079E0022CC6D16B78012B74D8A24AC7
:2028E0001278D2B293426FD09F4A13706CE0022CBBD168780300083BDBB26F2B64D89B4BD5
:202900001B78DBB298425FD0984B187000F0FEFDFFF700FD58E0032CACD8E7B2013FFFB2D0
:2029200000230AE0CA18D2B2E81846780CA8865401206E46B0540133DBB2BB42F2D36B46CB
:202940001B78002B08D00CAB1A78894B1B78DBB29A4201D0864B1A706B465B78002B33D0EA
:202960000CAB5A78834B1B78DBB29A422CD0642A2AD8804B1A7027E0CA18D2B2E8184678F8
:202980000CA8865401206E46B0540133DBB2BB42F2D3002301E00133DBB2022B14D86A46BF
:2029A000D25C002AF7D0744AD25CD2B20CA8C05C8242F0D0704AD054704A01211170EAE728
:2029C000FD2B05D0F02B17D0012C56D011B0F0BD022CF7D16B78002BF6D06423684A53637E
:2029E0008022D2055363674A53639363D3631364654A5363FFF778FE022CE5D16B78012BDA
:202A000011D0022BE0D100F03FFD594B1B78DBB298422AD0564B1878C0B2564B1978C9B2E3
:202A200000F03EFDD0E700F0E5FC4C4B1B78DBB298420BD0494B1878C0B24A4B1978C9B240
:202A4000494B1A78D2B200F0E1FCBDE700F098FC444B1B78DBB29842ECD100F0D1FC424B47
:202A60001B78DBB29842E5D1AEE700F013FD414B1B78DBB29842CDD1A6E72B78402B51D031
:202A80001AD9FE2B62D032D8412B57D09ED31A00503AD2B2022A99D819005039364A891852
:202AA0005324E41AE4B2220004A801F0A9FF210004A8FFF7EBFC89E7202B2BD00CD8002B35
:202AC00020D0102B00D081E7244B1B7804A803700121FFF7DBFC79E7302B00D076E7224B2E
:202AE0001B7804A803700121FFF7D0FC6EE7FF2B00D06BE71D4B1B7804A803700121FFF76D
:202B0000C5FC63E7214B1B7804A803700121FFF7BDFC5BE7134B1B7804A803700121FFF751
:202B2000B5FC53E7124B1B786A461374114B1B785374022104A8FFF7A9FC47E70D4B1B784A
:202B400004A803700121FFF7A1FC3FE7104B1B7804A803700121FFF799FC37E72606002057
:202B6000100600202506002024060020C500002023060020C70000202006002014060020F5
:202B80000020004000040040002C014027060020C600002072B6FEE700B593B03822002171
:202BA00004A801F001FF10220021684601F0FCFE8020800000F04EFF0A230493F6330793A8
:202BC00000230893402209923F3A0A9201320B920C920D9308330E9380239B020F93C02376
:202BE000DB04109380239B05119304A800F05CFF002810D107230093053B019390231B010C
:202C00000293002303930021684601F005FA002803D113B000BDFFF7BDFFFFF7BBFF0000C9
:202C200010B5FFF76FFD00F0C1FCFFF7B5FFFFF7B9FAFFF7EFFA00F0FDF800F0A7F900F029
:202C400015FA00F0EBFAFFF72DFD3E4B596C802212020A435A641968012211431960196A6D
:202C6000114319628023DB05196811431960196A11431962344B196811431960196A1143BE
:202C80001962196A102001431962186A8021490001431962186A80214901014319622B4B7A
:202CA000196811431960196A0A431A62FFF77AF8FFF7AEF8FFF74CFDFFF7C4F9FFF72AFB69
:202CC000FFF7B8FB32E000F091FC214B1B68984233D9204A13680133136000F087FC0A30AE
:202CE0001B4B186029E01C4C200001F0B1FB63681A4A1340636023680122934323602368F1
:202D0000073293432360FFF705FBFFF793FBFA20400000F071FCFFF75FF8FFF779F8FFF746
:202D200093F8FFF7BDF90E4B0E4A1A600E4B00221A600E4B1B68002BC5D1064B1B68322B6E
:202D4000D1D8E8E7002C014000040040002000401C0600204C01002000580040FFFFFFFDA9
:202D600000300040AAAA0000540100205001002082B00A4B196C012211431964196C0A40DA
:202D80000092009ADA6B802149050A43DA63DB6B0B400193019B02B07047C04600100240C7
:202DA000FEE7FEE77047704710B500F013FC10BD7047000080235B00994226D00CD81029A7
:202DC00025D005D8012924D0042924D1012210E0402922D103220CE080235B0199421ED099
:202DE00080235B0299421CD08023DB0099421AD1052218300D4B9B5CC01803680C49895C8D
:202E000004228A409343036070470422F1E70222EFE70022EDE70822EBE70822E9E70622C6
:202E2000E7E70722E5E70822E3E7C046C84A0008BC4A0008F0B5C64600B5ACB01422002194
:202E400027A801F0B1FD202200211FA801F0ACFD3022002113A801F0A7FD2822002109A861
:202E600001F0A2FD80239B03099309A801F09AF9002800D07CE01822002103A801F094FDD4
:202E80003D4E336C8022120113433364336C13400293029B27A90F230B8000244C6054335E
:202EA0008B60CC600C61354D280001F0B9FC2B688022904693432B60AB68314A1340AB60E6
:202EC000304A136808210B43136060231F93209421942294022723972494259426941FAAE8
:202EE0000739280001F0E4FC01212800FFF762FF6B68702293436B606B68234A13406B6094
:202F0000AB6842469343AB601394149415946B46283A9B181C706B4602329B181C80802314
:202F20009B011793189419941A9480239B041B931C941D941E9413A9280001F0E7FC726BAC
:202F400001231A437263726B13400193019B80235B00039304970594069407940897A0205F
:202F600003A9C00501F018FA2CB080BCB846F0BDFFF710FE7FE7C04600100240002C0140EB
:202F8000F8BFFEFF182C0140FFFF0FFFF0B5CE46474680B597B011AD14220021280001F0FC
:202FA00003FD2022002109A801F0FEFC1822002103A801F0F9FC2A4FFB6B01263343FB634C
:202FC000FB6B33400293029B0F232B80543313938024E4052900200001F022FC23688022CA
:202FE000914693432360A3681E4A1340A3601E4A136808210B4313606023099300250A9528
:203000000B950C955E3B98460D9309AA0739200001F04EFC01212000FFF7CCFE63687022AB
:2030200093436360A3684A469343A3607B6B33437B637B6B1E400196019B20230393434670
:2030400004930595069507950893A02003A9C00501F0A2F917B0C0BCB946B046F0BDC046C5
:2030600000100240F8BFFEFF18000040F0B5DE4657464E464546E0B597B011AD142200217C
:20308000280001F091FC2022002109A801F08CFC1822002103A801F087FC5A4FFB6B02264C
:2030A0003343FB63FB6B33400293029B0F232B8054331393544C2900200001F0B1FB236816
:2030C0008022924693432360A368504A1340A3604F4B98461B6808229346134342461360D3
:2030E0006023099300250A950B950C950D9609AA0121200001F0DCFB01212000FFF75AFEBC
:2031000043461B6880221201914613434246136009AA1021200001F0CBFB10212000FFF7C4
:2031200049FE3C4B98461B685A4613434246136080235B009B4609AA1900200001F0B8FB00
:2031400059462000FFF736FE43461B684A4613434246136080235B01984609AA19002000D0
:2031600001F0A6FB41462000FFF724FE6368702293436360A36852469343A3607B6B012481
:2031800023437B637B6B23400193019B7B6B33437B637B6B33400093009B4023039304961E
:2031A0000595069507950894A027FF0503A9380001F0F2F85346039304960595069507957E
:2031C000089403A9380001F0E7F8039404960595069507950894104F03A9380001F0DCF8F9
:2031E00003960496059506950795089403A9380001F0D2F817B0F0BCBB46B246A946A0464F
:20320000F0BDC0460010024000040040F8BFFEFF180400401C04004000040050F0B597B0B5
:2032200011AC14220021200001F0BEFB2022002109A801F0B9FB1822002103A801F0B4FB51
:20324000214D2B6C8022120213432B642B6C13400293029B0F232380543313931B4E210026
:20326000300001F0DDFA3368802293433360184A136808210B4313606023099300240A9408
:203280000B940C9402270D9709AA0739300001F00FFB01213000FFF78DFD6A6B01231A43DC
:2032A0006A636A6B13400193019B1023039304970594069407940C3B0893A02003A9C005A4
:2032C00001F06AF817B0F0BD0010024000200040182000400D488546FFF76AFD0C480D49D6
:2032E0000D4A002302E0D458C4500433C4188C42F9D30A4A0A4C002301E013600432A2424A
:20330000FBD301F059FBFFF78BFCFEE700200020C00000200C010020DC4A00080C01002090
:2033200048060020FEE7F8231B069C466044C00A704770B504684368C9000E00203E13D49F
:20334000FF25B540FF268E40B443AB43046043600D00203D0DD41600AE4035008A401443D0
:2033600004602B43436070BD2026761AFF25F540E8E720256D1A1600EE403500EEE7000093
:20338000014B1878C0B270470168000870B5040016001D0000F0A4F932002B00210001202F
:2033A00000F0ECF9040000F01BFA002C01D0002070BD0120FCE741680068704710B586B01E
:2033C0000023059302330193FFF7ADFF03900123049300F085F905A901A800F02FFA040097
:2033E00000F0FEF9002C02D0002006B010BD0120FBE70000014B1878C0B2704700680008CD
:20340000014B1878C0B2704702680008F0B583B004000F00150072B6194E3000FFF7CBFFB6
:2034200000900191220000216846FFF782FF3A0001216846FFF77DFF2A0002216846FFF795
:2034400078FF3000FFF7BAFF009A019B3000FFF79DFF62B6FFF7CEFFA04202D0002003B0BC
:20346000F0BDFFF78DFF074B834201D00020F6E7FFF7C6FFA84201D00020F0E70120EEE7D5
:203480000068000881330008014B1878C0B2704700700008014B1878C0B270470170000805
:2034A00070B582B004000D0072B6144E3000FFF782FF00900191220000216846FFF739FF32
:2034C0002A0001216846FFF734FF3000FFF776FF009A019B3000FFF759FF62B6FFF7D4FF99
:2034E000A04202D0002002B070BDFFF7D3FFA84201D00020F7E70120F5E7C046007000081D
:20350000014B1878C0B270470078000830B583B0040072B60E4D2800FFF74DFF00900191FB
:20352000220000216846FFF704FF2800FFF746FF009A019B2800FFF729FF62B6FFF7E0FFD5
:20354000844202D0002003B030BD0120FBE7C0460078000810B50400114B1978002901D1D9
:20356000012010BDFA208000FEF7CEF901000D4B1868FEF7C9F900F0A1F800280DD1032CB9
:2035800001D90120EDE7013000222100404200F091F8054B1C600020E3E70120E1E7C04648
:2035A000CC000020C8000020D000002010B5084A116880235B000B4313600320FFF7CAFF16
:2035C000041E02D00124200010BDFFF7D1FBFAE700200240034B1B78034A11685B18136053
:2035E0007047C046CC00002028060020014B18687047C0462806002070B50400FFF7F6FFE9
:203600000500631C02D0044B1B78E418FFF7EEFF401BA042FAD370BDCC00002070B5002823
:2036200011DB8308134DC0339B005C5903221040C000FC3216008640B44389010A408240A4
:2036400022435A5170BD0F230340083B9B0806339B00094A944663445C6803221040C00031
:20366000FC3215008540AC4389010A40824022435A60E7E700E100E000ED00E00138802366
:203680005B0498420FD2094A50600948036A1B021B0AC02109060B4303620023936007331A
:2036A0001360002070470120FCE7C04610E000E000ED00E010B5FFF7B1FF10BD10B5FFF726
:2036C000DDFF10BD30B5054C61690125294361610260BFF36F8F436030BDC04600200240E3
:2036E000084B5B69002B01DB00207047054B064A9A60064A9A605B69002B01DB0020F4E72B
:203700000120F2E70020024023016745AB89EFCD70B50400FFF76AFF0500144B1B69DB033F
:2037200008D5631CF9D0FFF761FF401BA042F4D303201AE00D490A690D4B16001E400D4803
:2037400008611A420CD1094B1B695B030CD5631CF9D0FFF74BFF401BA042F4D3032004E01D
:20376000054B5E60012000E0002070BD00200240FAC30000FBC300002C060020F8B507000A
:203780000C0015001E00144B1B78012B22D0124B01221A7000225A60FA208000FFF7B8FFAD
:2037A00000280DD1012F0FD02900200001F040F9FA208000FFF7ACFF084A5369BB43536186
:2037C000054B00221A70F8BD2A0033002000FFF779FFEDE70220F6E72C06002000200240C6
:2037E00010B5FA208000FFF793FF064B5969802212060A435A615B69002B01DB012010BD54
:203800000020FCE700200240034A536903438020400218435061704700200240044A5369E3
:2038200004480340C9001943034B0B43536170470020024007E0FFFF0200010070B504005A
:203840000E001E4B1B78012B36D01C4B01221A7000225A60FA208000FFF75AFF002827D133
:20386000042363602368042B14D001235B423360A568A368E2689B18AB4214D9606829008C
:20388000FFF7CCFFFA208000FFF742FF002809D10135EEE70430FFF7B7FFFA208000FFF719
:2038A00037FF05E03560064A536902218B435361024B00221A7070BD0220FCE72C0600202A
:2038C00000200240F0B5002359E086685F000324BC40A643CC68BC4034438460446894431E
:2038E0004E683609012232409A402243426056E0DE080836B600375805321A4092000F2468
:203900009440A7430C69944022003A43325059E0032600E00026A64034003C43424E1832A4
:20392000920094513768EA433E00AE434C68E40201D53E002E433C4C266067683E00164085
:203940004C68A40201D53E002E43374C66608426A7593E0016404C68A40301D53E002E4321
:20396000314C8427E6518026A65932404C68E40301D52A0032432C4D80242A5101330C6881
:203980002200DA404ED001229A40250015401442F4D04E6803243440013C012C95D94C685F
:2039A00003222240032A08D0C4685E000322B24094438A68B2402243C2604C68032222405D
:2039C000022A95D004685E0003221700B740BC434F683A40B240224302604C68C022920246
:2039E0001442CBD09A0814001834A4000E4EA75903241C40E4000F26A640B743A026F60597
:203A0000B04287D0094EB04208D0094EB04207D0084EB04200D17BE705267CE701267AE78B
:203A2000022678E7F0BDC046001802400004005000080050000C005003690B4201D001203F
:203A400070470020FCE7002A01D0816170478162FCE7000010B5104A136810490B400343CE
:203A6000136080239B00984201D0002010BD0C4B1B685800C01840000A49FDF745FF0130F7
:203A8000054B5B695B0503D5002803D00138F7E70020EBE70320E9E700700040FFF9FFFF3D
:203AA000C800002040420F0070B582B0041E00D131E20368DB0739D5C14A916838230B402B
:203AC000D16803220A40102B26D0082B26D063688022520293427FD0A022D202934200D1C3
:203AE00081E0B74B1A68B7490A401A601A68B6490A401A606368002B00D180E0FFF776FD48
:203B00000500AF4B1B689B0310D4FFF76FFD401B6428F6D90320FFE1032AD6D1A84B1B683C
:203B20009B0303D56368002B00D1F7E123689B0731D5A34A916838230B40D16803220A4009
:203B4000102B6AD0002B6BD19D4A1268520503D5E268002A00D1E3E1994842689B490A4037
:203B6000616909020A434260002B0DD1036898490B4021690B4303600368DB0A07221A40D3
:203B8000944BD340944A1360944B1868FFF7E2FC002800D0C6E123681B0700D481E0884B5B
:203BA0009A6838231340182B73D0A369002B00D1B4E0834A136E01210B431366FFF716FDF3
:203BC00005007F4B1B6E9B076BD4FFF70FFD401B0228F6D903209FE1794A116880235B0277
:203BE0000B43136086E7764B19688022D2020A431A601968802252020A431A607AE7FFF783
:203C0000F5FC05006E4B1B689B038FD5FFF7EEFC401B6428F6D903207EE1022A92D193E74F
:203C2000E368002B22D0664A136869490B4021690B431360116880235B000B431360FFF77B
:203C4000D5FC05005E4B1B685B0506D4FFF7CEFC401B0228F6D903205EE159494B685B4AB8
:203C600013406269120213434B6094E7544A13685B490B401360FFF7B9FC0500504B1B684D
:203C80005B0588D5FFF7B2FC401B0228F6D9032042E14B4B1B6E9B0703D5A369002B00D188
:203CA00042E123685B0700D4A2E0454B9A6838231340202B45D0424BDB6BDB004AD4404BA7
:203CC000DA6B802149050A43DA63DB6B0B400193019B0125434B1B68DB053DD5A368012B05
:203CE0004ED0052B52D0364BDA6D01218A43DA65DA6D03318A43DA65A368002B50D0FFF78B
:203D000075FC06002E4BDB6D9B076FD4FFF76EFC801B354B9842F5D90320FDE0284A136E70
:203D200001218B431366FFF761FC0500244B1B6E9B07B6D5FFF75AFC401B0228F6D90320DA
:203D4000EAE01F4BDB6D9B0752D5A368002B4FD10120E1E00025BDE7224A116880235B003A
:203D60000B431360FFF742FC06001E4B1B68DB05B4D4FFF73BFC801B0228F6D90320CBE065
:203D80000F4AD36D01210B43D365B5E70C4BDA6D04210A43DA65DA6D03390A43DA65ABE756
:203DA000FFF724FC0600064BDB6D9B071ED5FFF71DFC801B0C4B9842F5D90320ACE0C0465B
:203DC00000100240FFFFFEFFFFFFFBFFFF80FFFFFFC7FFFF0024F400C8000020D00000206D
:203DE000FFFEFFFF0070004088130000012D1ED0E369002B00D199E0544A916838220A4065
:203E0000102A60D0022B18D0504A136850490B401360FFF7EBFB04004C4B1B689B014BD501
:203E2000FFF7E4FB001B0228F6D9032074E0474AD36B48490B40D363DAE7444A13684449EA
:203E40000B401360FFF7D2FB0500404B1B689B0106D5FFF7CBFB401B0228F6D903205BE0E9
:203E60003A4AD3683C491940236A606A0343A06A00020343E06A0343206B0343606B034344
:203E80000B43D360116880235B040B431360D16880235B050B43D360FFF7A8FB04002B4B95
:203EA0001B689B0106D4FFF7A1FB001B0228F6D9032031E000202FE0244AD36827490B409C
:203EC000D360002028E0012B32D0204BDA6803231340216A8B422DD170231340616A8B425F
:203EE0002AD1FE21C9011140A36A1B02994225D1F8239B031340E16A8B4221D1E0231B0559
:203F00001340216B8B421DD1520F5207636B9A421AD1002000E0012002B070BD0120FBE7B5
:203F20000120F9E70120F7E70120F5E70020F3E70120F1E70120EFE70120EDE70120EBE7B2
:203F40000120E9E70120E7E70120E5E700100240FFFFFFFEFFFFFFEF8C80C111FCFFFEEE96
:203F600010B52A4B9B6838221A4207D1274B1A68D20A072313402648D84010BD234B9A6866
:203F800038231340082B3BD0204B9A6838231340102B0DD01D4B9A6838231340202B31D09E
:203FA0001A4B9A6838231340182B26D00020E4E7164AD1680D3B0B40D268120907211140CE
:203FC0000131032B0FD01248FDF79EFC0F4BDA68120A7F23134058430C4BD968490F013150
:203FE000FDF792FCC9E70B48FDF78EFC074BDA68120A7F2313405843EEE7FA20C001BCE72B
:204000000448BAE780200002B7E7C046001002400024F40000127A0070B504000D00002819
:2040200000D1AAE0574B1A68072313408B4221D323689A070ED55B0705D5534A9168E023DF
:20404000DB010B439360504A936850490B40A1680B4393602368DB0754D56368012B20D003
:20406000022B3BD0002B3FD1474A126852051CD401206AE0434A136807218B432B43136031
:20408000FFF7B4FA06003F4B1A6807231340AB42CED0FFF7ABFA801B3D4A9042F3D90320E4
:2040A00053E0394A1268920369D537498A680720824313438B60FFF799FA0600324B9B684F
:2040C00038221A406368DB009A421BD0FFF78EFA801B2F4B9842F1D9032036E02A4A126861
:2040E0009201E2D4012030E0032B05D0264AD26D9207DAD4012028E0234A126E9207D4D4F6
:20410000012022E01F4B1A6807231340AB421DD823685B0706D51C4A93681E490B40E1680D
:204120000B439360FFF71CFF174B9A68120A0F231340194A9B009A581F231340D840174B29
:204140001860174B1868FFF705FA70BD0D4A136807218B432B431360FFF748FA0600094BA8
:204160001A6807231340AB42D2D0FFF73FFA801B074B9842F3D90320E7E70120E5E70120F0
:20418000E3E7C0460020024000100240FFF0FFFF88130000FF8FFFFF7C4A0008C8000020D1
:2041A000D0000020F0B583B0040003689B0362D56D4BDB6BDB001ED46B4BDA6B802149053E
:2041C0000A43DA63DB6B0B400193019B0126674A116880235B000B431360FFF707FA050088
:2041E000624B1B68DB0508D4FFF700FA401B0228F6D9032502E00026E9E70025002D23D149
:20420000594BD96DC02292000B001340114212D0626A9A420DD0544AD36D55490B40D06D24
:20422000802149020143D165D16D52480140D165D365DB0710D4002D06D14B4AD36D4C495D
:204240000B40616A0B43D365012E15D1464AD36B49490B40D3630FE0FFF7C8F90700424B92
:20426000DB6D9B07E7D4FFF7C1F9C01B434B9842F5D90325DFE700252368DB0706D53A4AF9
:20428000536D03218B4361680B4353652368DB0606D5354A536D3A490B40A1680B4353653A
:2042A00023689B0506D5304A536D36490B4061690B43536523685B0506D52B4A536D3249AE
:2042C0000B40A1690B43536523689B0606D5264A536D2E490B40E1680B43536523685B0451
:2042E0000BD5214A536D9B009B08E1690B435365E2698023DB059A4220D023689B020BD583
:20430000194A536D22490B40216A0B435365226A8023DB039A4218D023681B050BD5124A7B
:20432000536D1C490B4021690B43536522698023DB019A4210D0280003B0F0BD0A4AD168A2
:2043400080235B020B43D360D7E7074AD16880235B040B43D360DFE7034AD16880235B02C5
:204360000B43D360E7E7C0460010024000700040FFFCFFFFFFFFFEFFFFFFFFEF881300006B
:20438000FFF3FFFFFFFFF3FFFFFFCFFFFFCFFFFFFFFFBFFFFF3FFFFFF0B5002216E00B697C
:2043A0009C46C4682B006B435E00F618F743B44366465E433443C4604C68022C25D04D6805
:2043C00004683C406B432343036001320C682300D3403AD00123934025001D401C42F4D0FC
:2043E0004B68013B012BDAD88F6883682C006C4366003619B3437C4323438360CC684368A1
:20440000AB436C4323434360C9E7FF2D0DD84C69A446066A1C006C436C4325012D1BAE434D
:2044200065466C4334430462C9E74C69A446466A2D0A2C006C436C436C4325012D1BAE4377
:2044400065466C4334434462B9E70020F0BD00000F4B984204D00F4B98420DD00120704787
:204460000D4BD96A802292030A43DA62DA6A0B490A40DA620020F2E7074BD96A8022D203BE
:204480000A43DA62DA6A06490A40DA620020E6E7005400400058004000100240FFFFDFFF33
:2044A000FFFFBFFF70B503680125AB4303608A68CC680368164E334024022243134303608D
:2044C0004B68036103682B4303608368114A134083600A698C698368DB0ADB02224313433D
:2044E00083600B69002B04D0826880231B02134383600B680268084C2240134303604B6983
:20450000426804490A4013434360002070BDC046FFE0FFFFFF7FFFFFFFFFCFFF70B5036A57
:204520000126B3430362036A45688269164C22400C681443022293430A691343B3434A68FA
:204540001343124A904205D0114A904202D0114A904212D1082293434A6992001343042232
:2045600093438A68920013430B4A2A408D692A430A4D2A40CD696D00154345608461CA68F1
:2045800042630362002070BD8CFFFEFF002C01400044014000480140FFFEFFFFFFFDFFFFCC
:2045A00070B5036A1026B3430362036A44688269184D2A400D682D022A432025AB430D694B
:2045C0002D012B43B3434D682D012B43124DA84205D0124DA84202D0114DA84213D18025EE
:2045E000AB434D69AD012B434025AB438D68AD012B430C4D25408C69A40025430A4C25401D
:20460000CC69E4002C4344608261CA6882630362002070BDFF8CFFFE002C01400044014048
:2046200000480140FFFBFFFFFFF7FFFF70B5036A1B4E33400362036A4468C269194D2A401E
:204640000D682A43184D2B400D692D022B4333404D682D022B43154DA84205D0144DA84264
:2046600002D0144DA84213D1134D1D404B699B021D43124B1D408B689B022B43104D254051
:204680008C69240125430F4C2540CC6964012C434460C261CA68C2630362002070BDC046F9
:2046A000FFFEFFFF8CFFFEFFFFFDFFFF002C01400044014000480140FFF7FFFFFFFBFFFF16
:2046C000FFEFFFFFFFDFFFFF70B5036A144E33400362036A4468C269124D2A400D682D0295
:2046E0002A43114D2B400D692D032B4333404D682D032B430D4DA84205D00D4DA84202D07B
:204700000C4DA84204D10C4D25408C69A4012C434460C261CA6802640362002070BDC046A3
:20472000FFEFFFFFFF8CFFFEFFDFFFFF002C01400044014000480140FFBFFFFF30B5036AA0
:20474000144D2B400362036A426D134C22400C682243124C23400C69240423432B404C688F
:20476000240423430E4CA04205D00E4CA04202D00D4CA04206D14468064D2C408D692D02EA
:204780002C4344604265CA68816D82650362002030BDC046FFFFFEFF8FFFFEFFFFFFFDFF60
:2047A000002C0140004401400048014030B5036A144D2B400362036A426D134C22400C68AA
:2047C00024022243114C23400C69240523432B404C68240523430E4CA04205D00D4CA04290
:2047E00002D00D4CA04206D144680C4D2C408D69AD022C4344604265CA68C2650362002027
:2048000030BDC046FFFFEFFFFF8FFFFEFFFFDFFF002C01400044014000480140FFFFFBFFDF
:2048200003681D4A904206D08022D205904202D01A4A904203D1702293434A681343164A07
:2048400090420FD08022D20590420BD0134A904208D0134A904205D0124A904202D0124A1A
:20486000904203D1114A1A40CB68134303608B68C3620B888362084B984205D0094B984231
:2048800002D0094B984201D10B690363436901221343436100207047002C0140000400401B
:2048A000002000400044014000480140FFFCFFFF10B50B00110080225201934220D00CD812
:2048C000102B17D080225200934216D0012B02D1FFF724FE10BD0120FCE780225202934254
:2048E00011D080225203934202D1FFF75FFFF1E70120EFE7FFF754FEECE7FFF797FEE9E79F
:20490000FFF7E2FEE6E7FFF719FFE3E70B7B8A681343194A13404A681343184A13400A6869
:204920001343174A1340CA891343164A13400A691343154A1340CA6A1343144A13404A69A8
:204940001343134A13408A691343124A904202D0436400207047104A13404A6A13430F4A7A
:204960001340CA6913430E4A13400A6A13430D4A13408A6A1343EBE7FFFBFFFFFFF7FFFF34
:20498000FFEFFFFFFFDFFFFFFFBFFFFFFFFFF0FFFFFFFFEF002C0140FFFF0FFFFFFFFFFE46
:2049A000FFFFFFFDFFFFFFDF03008218934200D1704719700133F9E770B500260C4C0D4D8D
:2049C000641BA410A64209D1002600F023F80A4C0A4D641BA410A64205D170BDB300EB58F0
:2049E00098470136EEE7B300EB5898470136F2E7D44A0008D44A0008D84A0008D44A00084B
:204A0000002310B59A4200D110BDCC5CC4540133F8E70000F8B5C046F8BC08BC9E4670471B
:204A2000F8B5C046F8BC08BC9E4670470000000001B40248844601BC604700BFD5000020CF
:204A4000041C00080A1C0008121C0008181C00081E1C0008241C00082A1C0008000F0E0D8C
:204A60000C0B0A0908070605040302017E306D79335B5F707F7B771F4E3D4F470000000046
:204A8000000000000000000000000000000000000000000000000000000000000100000015
:204AA0000200000003000000040000000600000007000000080000000900000000000800C7
:204AC0000000080008000000000000000404043C3C000000E9180008C1180008FFFFFFFF5C
:204AE000FF4801640024F400010000000400000010B50C4A54698023DB0223435361EFF399
:204B0000108472B6002303E004C904C00133DBB23F2BF9D9034B1B69DB03FBD484F31088B7
:204B200010BDC04600200240FFFFFFFFFFFFFFFFFFFFFFFFFFFFFFFFFFFFFFFFFFFFFFFF58
:204B4000FFFFFFFFFFFFFFFFFFFFFFFFFFFFFFFFFFFFFFFFFFFFFFFFFFFFFFFFFFFFFFFF75
:204B6000FFFFFFFFFFFFFFFFFFFFFFFFFFFFFFFFFFFFFFFFFFFFFFFFFFFFFFFFFFFFFFFF55
:204B8000FFFFFFFFFFFFFFFFFFFFFFFFFFFFFFFFFFFFFFFFFFFFFFFFFFFFFFFFFFFFFFFF35
:204BA000FFFFFFFFFFFFFFFFFFFFFFFFFFFFFFFFFFFFFFFFFFFFFFFFFFFFFFFFFFFFFFFF15
:2067E000FFFFFFFFFFFFFFFFFFFFFFFFFFFFFFFFFFFFFFFFFFFFFFFFFFFFFFFF07458CEAF3
:20680000FFFFFFFFFFFFFFFFFFFFFFFFFFFFFFFFFFFFFFFFFFFFFFFFFFFFFFFFFFFFFFFF98
:20682000FFFFFFFFFFFFFFFFFFFFFFFFFFFFFFFFFFFFFFFFFFFFFFFFFFFFFFFFFFFFFFFF78
:20684000FFFFFFFFFFFFFFFFFFFFFFFFFFFFFFFFFFFFFFFFFFFFFFFFFFFFFFFFFFFFFFFF58
:20686000FFFFFFFFFFFFFFFFFFFFFFFFFFFFFFFFFFFFFFFFFFFFFFFFFFFFFFFFFFFFFFFF38
:00000001FF
